:020000040800F2
:10000000800F002071140008CF3F00082914000859
:100010002914000829140008291400080000000011
:10002000000000000000000000000000F9100008BF
:100030002914000800000000A5100008A1260008EF
:10004000D1110008D1110008D1110008D111000808
:10005000D1110008D1110008D1110008D1110008F8
:10006000D1110008D1110008D1110008D1110008E8
:10007000D1110008D1110008D1110008D1110008D8
:10008000D1110008D1110008D1110008D1110008C8
:10009000D1110008D1110008D1110008D1110008B8
:1000A000D1110008D1110008D1110008D1110008A8
:1000B000D1110008D1110008D1110008D111000898
:1000C000D1110008D1110008D1110008D111000888
:1000D000D1110008D1110008D1110008D111000878
:1000E000D1110008D1110008D1110008D111000868
:1000F000D1110008D1110008D1110008D111000858
:10010000D1110008D1110008D1110008D111000847
:10011000D1110008D1110008D1110008D111000837
:04012000D1110008F1
:1001240053B94AB9002908BF00281CBF4FF0FF315A
:100134004FF0FF3000F00CB8ADF1080C6DE904CEBF
:1001440000F008F8DDF804E0DDE9022304B07047AC
:10015400704700BF2DE9F04F07468C460846154608
:100164003C461946099E002B40F0C6808242B2FAF2
:1001740082F746D94FB1C7F1200E24FA0EFE00FAD9
:1001840007F3BD404EEA030CBC404FEA1548BCFBE4
:10019400F8F91FFA85FE08FB19C309FB0EFA220CB5
:1001A40042EA03439A4528D9EB1809F1FF3004D2F7
:1001B4009A4502D9A9F102002B44A3EB0A03B3FB2D
:1001C400F8F208FB123302FB0EFEA4B244EA034425
:1001D400A64514D92C1902F1FF3303D2A64501D93F
:1001E400931E2C44A4EB0E0443EA00401EB10023EA
:1001F400FC4034607360BDE8F08F4846DDE7134689
:10020400F0E702B9FFDE87BB0121831A4FEA154EDE
:10021400B3FBFEFCAAB20EFB1C330CFB02F8200C51
:1002240040EA0343984563D9EB180CF1FF3004D23C
:10023400984502D9ACF102002B44A3EB0803B3FBAD
:10024400FEFC0EFB1C330CFB02F2A4B244EA034492
:10025400A2424FD92C190CF1FF3304D2A24202D985
:10026400ACF102032C44A41ABEE7C7F1200CBD4034
:1002740020FA0CF800FA07F324FA0CFC4FEA154EA6
:100284004CEA0302B8FBFEFCABB20EFB1C800CFB79
:1002940003F9110C41EA0040814504FA07F423D91B
:1002A40028180CF1FF3104D2814502D9ACF10201C6
:1002B4002844A0EB0900B0FBFEFC0EFB1C000CFB69
:1002C40003F892B242EA004398450FD9EB180CF1B7
:1002D400FF3204D2984502D9ACF102022B44A3EBBD
:1002E400080342EA014191E76146E2E76246F6E724
:1002F4006046A2E76346B6E7834205D90EB1C6E974
:1003040000700021084676E7B3FA83F181B983428D
:1003140001D3BA420AD8BC1A60EB030301209C46FD
:10032400002E68D0C6E9004C002164E70846F7E7D0
:10033400C1F1200C8B4022FA0CF41C4320FA0CFB74
:100344004FEA1449BBFBF9F81FFA84FE09FB18BBFA
:1003540008FB0EFA02FA01F500FA01F327FA0CF28F
:1003640013431A0C42EA0B42924507FA01F73ED9AD
:10037400A21808F1FF3004D2924502D9A8F1020074
:100384002244A2EB0A02B2FBF9F809FB182208FB8B
:100394000EFE9BB243EA024296452AD9A21808F1FE
:1003A400FF3304D2964502D9A8F10203224443EA5A
:1003B4000040A0FB0593A2EB0E029A42CE4698465B
:1003C40002D306D14F4504D2B9EB050E63EB040802
:1003D400013886B1B7EB0E0362EB080707FA0CFC91
:1003E400CB404CEA0303CF40C6E900379CE74046C4
:1003F400C7E74346DBE73146FDE600000B783BB92F
:1004040010B58368DC68012380220249A04710BD2F
:10041400704700BFC004002070B582B00E46154678
:100424001C4602F061FB104B186000969DF81830D2
:100434008DF804309DF81C308DF805308DF8065089
:100444008DF8074083685B6A2BB16946984700289A
:1004540004DB02B070BD6FF05700F8E701460348B3
:1004640003F0C9FBF5E700BF74090020085E00082B
:1004740070B517E001461A4803F0BDFB70BD194E74
:10048400194D3146284603F039FE184B1C68304696
:1004940003F03EFE0246A3685E684FF0FF33294630
:1004A4002046B047114B18688368DC684FF0FF336F
:1004B40080220F49A0470028DCDB0C4B18688368B6
:1004C4005B6998470123802209490A4803F04AFCE2
:1004D4000028D4DA0146084803F08DFBCEE700BFBC
:1004E400245E0008805E0008400500207409002096
:1004F400C00400204C0500204C5E000830B583B0D9
:10050400012301930023009303224FF4E131234894
:10051400FFF782FF224B186883681B6813B100221F
:10052400204998471E4B18688368DC6800238022A2
:100534001D49A047011E27DB1B4B1B78002BFBD05A
:100544001A4803F0E5FD02461949174803F0FEFD79
:100554000028F1D1174803F04EFB114B1C681348D7
:1005640003F0D6FD0246A3685D684FF0FF330E49E1
:100574002046A847011E0BDB802200210A4803F015
:1005840027FEFFF775FFD7E70B4803F034FB02E0C3
:100594000A4803F030FB03B030BD00BF885E00089A
:1005A4007409002001040008C0040020905E0008C3
:1005B400985E0008A85E0008245E0008BC5E00087F
:1005C40008B50B6801330B60014B1B68984708BDE5
:1005D400A0020020014B1860704700BFA002002059
:1005E40000B583B002460B460021019101A90348DE
:1005F40000F090F903B05DF804FB00BFC5050008E6
:1006040070B582B0044600230360436083604B7876
:10061400252B02D04E1C01251FE0881CE37045E108
:10062400237843F004032370B5B1013614E0237832
:1006340043F008032370F7E7237843F01003237093
:10064400F2E7237843F020032370EDE7237843F0A7
:1006540040032370E8E7002545B33378203B102B93
:10066400F9D801A252F823F03D0600085B06000801
:100674005B060008470600085B0600085B060008E6
:100684005B0600085B0600085B0600085B060008C2
:100694005B060008330600085B0600082506000810
:1006A4005B0600085B06000851060008237803F087
:1006B4004403442B5FD00196237843F080032370D6
:1006C40033782A2B5CD001A803F0ADFA019B9E423B
:1006D4000FD0237843F0800323706060DBB2C3F350
:1006E4004003002854DB00221343227863F34102C1
:1006F4002270019B01931B782E2B14BF002301232E
:10070400627863F341026270002B43D0019B5A1C50
:1007140001925B782A2B3FD001A803F084FAA060F1
:100724002378C3F3400300283EDB002213432278DE
:1007340063F341022270019803784C3B2E2B00F2A4
:100744009D80DFE803F0909B9B9B9B9B9B9B9B9BCB
:100754009B9B9B9B9B9B9B9B9B9B9B9B9B9B9B9BE5
:100764009B9B339B579B459B9B9B9B9B9B9B899BE9
:100774009B9B9B9B820023786FF3861323709AE7DD
:10078400637843F001036370334601330193B1E7A7
:100794000122A9E70198CFE7637843F0040363706B
:1007A400104601300190C7E70122BFE7421C43789D
:1007B400682B06D06378022161F3C6036370104688
:1007C4001EE06378012262F3C6036370023017E00F
:1007D400421C43786C2B06D06378032161F3C60373
:1007E400637010460CE06378042262F3C6036370FE
:1007F400023005E06378052262F3C60363700130BA
:1008040010F8013BE370A3F14102372A7DD8DFE8F9
:1008140002F05E7C7C7C5E5E5E7C7C7C7C7C7C7C92
:100824007C7C7C7C7C7C7C7C7C4F7C7C7C7C7C7C31
:100834007C7C5E7C4F3A5E5E5E7C3A7C7C7C7C6534
:100844004F717C7C717C4F7C7C4F6378062262F311
:10085400C60363700130D3E76378072262F3C603EB
:1008640063700130CCE76378082262F3C6036370D7
:100874000130237843F002032370C1E763786FF3F8
:10088400C6036370BCE7A278012161F30202A2707F
:10089400627802F07802402A10D0632B13D02378B8
:1008A400C3F34002154365F34103237002B070BDE6
:1008B400A278022161F30202A270E9E7217841F0F3
:1008C40001012170E9E7151E18BF0125E7E7A378A8
:1008D400042262F30203A3700125E0E7A378032254
:1008E40062F30203A370637803F07803402BD6D13C
:1008F4000125D4E7A378032262F30203A37063788B
:1009040013F0780FCBD00125C9E7237843F0010316
:100914002370C4E72DE9F04F91B006460D46914689
:100924000393002499F80000002800F0D5822528BC
:1009340008D009F101092946B0470028C0F2CD8248
:100944000134EFE700230493059306930793089378
:100954000993494606A8FFF753FE02909DF8193003
:1009640013F0010F00F09780039B1A1D03921F6878
:10097400002FC0F288809DF8193013F0040F00F0A6
:100984009C80039B1A1D0392D3F800A0BAF1000FB8
:10099400C0F28A800023079308939DF81A3003F06D
:1009A40007039DF81910C1F3C301012B00F08E80D9
:1009B400022B00F0D380042B00F02481032B00F0E1
:1009C4003B819DF8188018F0030B40F03B819DF8A3
:1009D4001B30253B532B00F2E681DFE813F0400186
:1009E400E401E401E401E401E401E401E401E401DB
:1009F400E401E401E401E401E401E401E401E401CB
:100A0400E401E401E401E401E401E401E401E401BA
:100A1400E401E401E401E401E401E401E401E401AA
:100A2400E401E401E401E401E401E401E401E4019A
:100A3400E401E401E401E401E401E401E401E4018A
:100A4400E401E4018101E401E401E401E401E401DD
:100A5400E401E401E401E401E4015E016701E4016D
:100A6400E401E401E4016701E401E401E401E401D7
:100A7400BE018101A201E401E4014D01E40181010F
:100A8400E401E40181019DF8183043F004038DF87A
:100A940018307F426FE79DF91830002B02DB4FF0CE
:100AA400FF3768E7079F66E79DF819306FF3410346
:100AB4008DF819304FF0FF3A6CE713F0020F02D0B3
:100AC400DDF820A066E74FF0FF3A63E7CB1E042B66
:100AD40004D8DFE803F00B1D29353500039B1A1DEC
:100AE40003921B68DA170493059206E0039B1A1D10
:100AF40003921B68DA1704930592012928D002296E
:100B04007FF45FAFBDF91030DA170493059258E70C
:100B1400039B073323F0070303F108020392D3E98D
:100B24000023CDE90423E8E7039B073323F00703FD
:100B340003F108020392D3E90023CDE90423DCE79F
:100B4400039B1A1D03921B68DA1704930592D4E7DA
:100B54009DF8103004930023059332E7CB1E042B39
:100B640004D8DFE803F00B1F35414100039B1A1D35
:100B740003921B680493002305931EE09DF81B3029
:100B8400632B07D0039B1A1D03921B680493002355
:100B9400059312E0039B1A1D03921B680493002320
:100BA40005930AE0039B073323F0070303F10802CC
:100BB4000392D3E90023CDE9042301291CD002299F
:100BC4007FF4FFAEBDF81030049300230593F8E6DC
:100BD400039B073323F0070303F108020392D3E9CD
:100BE4000023CDE90423E8E7039B1A1D03921B6845
:100BF400049300230593E0E79DF810300493002349
:100C04000593DEE608290BD0039B073323F0070383
:100C140003F108020392D3E90023CDE90423D0E6CB
:100C2400039B073323F0070303F108020392D3E97C
:100C34000023CDE90423C4E6039B1A1D03921B6819
:100C44000493BEE6029F3B464A462946304603F0DB
:100C540066F80028C0F241810444B94662E6294698
:100C64002520B0470028C0F238810134D8460DF160
:100C74003E0A4FF000099BE0DDF81090BAF1000F36
:100C840007DB5146484603F04CFA09EB000AD84604
:100C94008EE0484603F03CFAF7E7049B8DF82830D1
:100CA400D8460DF1290A0DF1280981E018F0080F42
:100CB40005D118F0100804D04FF0200801E04FF0DF
:100CC4002B08049A059B002B02DB0492059308E091
:100CD400524263EB4303049205934FF02D0800E066
:100CE400D8460DF13E0300930AAB06AADDE90401E0
:100CF40002F0ABFF8146BAF1000FC0F288800DF11B
:100D04003E03A3EB09039DF818206FF386128DF8B8
:100D140018209A457ED9AAEB030307930DF13E0AE6
:100D240046E0049828B9D846DFF8B4A1AAF1050929
:100D34003EE00DF13E0300930AAB06AA002102F047
:100D440084FF81469DF81A3043F010038DF81A3061
:100D540078238DF81B30D846CDE7049A9DF81930D6
:100D6400C3F3C303072B06D8DFE803F0040B0D0F0E
:100D74001115191B1460D8460DF13E0A4FF00009F5
:100D840016E01470F7E71480F5E71460F3E7E3174F
:100D940014605360EFE7E31714605360EBE71460EB
:100DA400E9E71460E7E7D8460DF13E0A4FF0000981
:100DB400B9F1000F00F08D80AAEB0903B8F1000F20
:100DC40000D001339DF81A2012F0100F25D0023301
:100DD40007990B4412F0400F01D0089A1344002FD6
:100DE40031DDFF1A9DF8183013F0040F2BD113F0E6
:100DF400400F17D0B8F1000F17D029464046B0472E
:100E040000286ADB0134D8464FF0300B0FE00DF1B7
:100E14003E0ACDE70DF13E0ACAE712F0080FD7D01B
:100E24000133D5E74FF0200B01E04FF0300B3B4688
:100E34005F1E002B07DD29465846B04700284CDBCF
:100E440001343B46F4E7B8F1000F05D0294640468B
:100E5400B047002841DB01349DF81A30C3F3001277
:100E6400C3F3C003134305D029463020B0470028FC
:100E740033DB01349DF81A3013F0100F06D02946E5
:100E84009DF81B00B047002827DB0134079B03F1C2
:100E9400FF38002B07DD29463020B04700281CDB33
:100EA40001344346F3E753464A462946304602F0A6
:100EB40036FF002811DB0444002F07DD29462020DB
:100EC400B047002809DB0134013FF5E7DDF808905D
:100ED40028E5DDF8089025E5204611B0BDE8F08F3F
:100EE400E15E000882B04FF01002EFF3118382F349
:100EF4001288BFF36F8F83F31188BFF36F8F0B4B8F
:100F04000B4A1A600B4B5A6A42F080525A625B6A6F
:100F140003F080530193019B074A136823F4C053E1
:100F240043F400631360002002B07047D80200202D
:100F340068FF1F00003802400070004010B5044CE8
:100F440002E054F8043B9847024B9C42F9D310BD8D
:100F54008C5D00088C5D0008064B1B684BB110B516
:100F64005C1E044A52F8233098472346002CF7D1DC
:100F740010BD7047845D0008AF281DD8F8B504463D
:100F84000F46154603090E4A52F823608EB13046C7
:100F940004F04BFA50B100235BB92B463A4604F0F7
:100FA4000F01304603F039FC0020F8BD6FF0120346
:100FB400F2E76FF01200F8E76FF01500704700BF1A
:100FC400E45E0008014910220A60704710ED00E059
:100FD40072B6404080F31188BFF36F8FBFF34F8F19
:100FE40030BF62B6BFF36F8F704700BF40B20028B6
:100FF40007DB00F01F02400901239340014A42F835
:101004002030704700E100E0013140B2002808DBE5
:101014000901C9B200F1604000F5614080F8001395
:10102400704700F00F000901C9B2014B1954704711
:1010340014ED00E030BFFFF7FDBF00BF08B5094B5A
:1010440023F0604323F07F03074A9360BFF34F8F7D
:10105400BFF36F8F01F016FE02F030FC00F0ECF9E4
:1010640001F01CFE0000000800ED00E0094A93684E
:10107400586709490968996708494B6843F08053E0
:101084004B60002383F31188BFF36F8F9368986FCD
:10109400704700BF340B00207062000800ED00E0D0
:1010A40012498A684FF030001044EFF3098C80E84D
:1010B400F01F102080F31288BFF36F8F0C4F4FF096
:1010C40000668A698A603E60506F0023536780F32C
:1010D400118804B5104600F003FABDE8044002F19B
:1010E400300090E8F01F8CF309887047340B00201F
:1010F40004ED00E01EF0040F0CBFEFF30880EFF3E3
:101104000980816911F8021C0229FFD001B502F09F
:1011140050FF01BD10B4A2F120040D4942F8081C8F
:1011240021F0010142F8081C42F8203C019B42F8DE
:101134001C3C029B42F8183C039B42F8143C4FF0C1
:10114400807342F8043C04650023436710BC704775
:10115400173C0008114B9A68EAB110F1160F10D031
:10116400536EA3F1200C844505D8834205D98B42E4
:1011740005D800210AE0002108E0002106E0012151
:1011840004E0536E8B4294BF0021012109B9002071
:101194007047506E70470020704700BF340B00202A
:1011A40008B50D461446084B986000F099F920469E
:1011B40085F30988002163B681F31188BFF36F8F2B
:1011C4000022002302F025FD340B002001B5EFF3CB
:1011D4000580A0F110004FEAC0000449014409C988
:1011E4009847BDE80140024908470000BC5B00087D
:1011F400F9110008044B99689869884203D003499F
:101204004FF080520A607047340B002004ED00E078
:1012140010B514460F4B9A6A9A6A9B6A13F4007FBE
:101224000BD00C4B9A6B9B6A13F4004F05D021B181
:10123400084A936A23F400439362064B9A6A9A6AB3
:101244009A6A42F47F429A62012102F0C4FE20703D
:10125400002010BD00ED00E0074B9A6A9A6A9A6A72
:101264009A6A9A6A9A6A9A6A6FEA02426FEA124220
:101274009A620020704700BF00ED00E070B505469B
:1012840016461F4B9A6A9A6A9B6A13F0020F0CD097
:101294001B4B586B9B6A13F0800F24D039B1184A4A
:1012A400936A23F08003936201E06FF01500144BFE
:1012B4009A6A9B6A13F0100F04D1114B9C6A14F0C4
:1012C400020404D00E4B5C6814F400640ED10C4A82
:1012D400936A43F0FF0393620121284602F07BFEE8
:1012E4003070204670BD6FF01500E0E72946FFF727
:1012F40031FF04460028EAD080F309880224E6E797
:1013040000ED00E008B5844600230B701B4BD86A3F
:1013140010F002002ED1DB6A002B2CDB174BDB6AAA
:1013240013F0804328D0DCF8183033F8022C4DF643
:1013340002739A420FD0114B93F8283073B90F4BB4
:1013440093F8293083B90D4B5B8D9BB29BB16046FA
:10135400FFF782FF0FE0DCF800000CE00A460121F1
:101364006046FFF78BFF06E00A4601216046FFF75F
:101374004FFF00E0002008BD1846FCE700ED00E048
:1013840070B58AB00C46224B5968C1F3080100239A
:1013940083F31188BFF36F8F02F07F43B3F17F4F64
:1013A40015D102F00C03082B14D012F0080F0BD047
:1013B40000260DF12702204602F012FE05469DF894
:1013C400273053B10AB070BD04460126F1E7002668
:1013D4003446EEE700263446EBE72022214601A8F6
:1013E40002F0C7FE4EB1089BC3F308025AB96FEA74
:1013F40053236FEA4323089305E0089B23F4FF7308
:1014040023F00103089301A9284602F0CEFDD9E791
:1014140000ED00E0024A536943F010035361704742
:1014240000ED00E0EFF30880EFF3098101B57246A7
:10143400FFF7A6FF01BD00BF002206E002F00F0186
:10144400094B0B44102119760132382A0ADC53B2B5
:10145400002BF3DB03F1604303F56143102183F8B0
:101464000013F1E7704700BFFCEC00E0102080F3AC
:10147400118808484FF40261401880F30988EFF39B
:1014840014800221084380F31488BFF36F8FFFF7A1
:10149400D5FD0000C010002008B5084B9B688342AE
:1014A40002D002F0CFF908BDEFF30583002BF8D08A
:1014B400034A536843F080535360F2E7340B00202F
:1014C40000ED00E008B5034B034A0121034802F094
:1014D4000DFE08BD0040012000000020105F000840
:1014E40008B5436E203B0548036020234360044B4A
:1014F4008360012102F0FEFD08BD00BF78090020D1
:1015040000000B15084AC2F898000B6823F01F036B
:10151400034343F01003C2F89C308B6843F001038B
:10152400C2F8A030704700BF00ED00E010B5034CD6
:101534000123227802F0B2FD207010BD7C0B002044
:1015440008B50023094A127802F0A8FD10F1160F1D
:101554000AD0034606E0064AC2F898300021C2F8D1
:10156400A0100133072BF6DD08BD00BF7C0B002063
:1015740000ED00E0044B0522C3F89420BFF34F8F25
:10158400BFF36F8F704700BF00ED00E0BFF35F8FC4
:10159400024B0022C3F89420704700BF00ED00E026
:1015A40038B50E4B1D68082D15D8FFF7EFFF002442
:1015B40009E00A4B596804EB44029300194420469D
:1015C400FFF7A0FF0134A542F3D8054B1D70FFF7C8
:1015D400D1FF002038BD4FF0FF30FBE72C5F00083F
:1015E4007C0B0020014B1860704700BFA402002050
:1015F40070B504460D46166900E00134AC4214DAB5
:101604001F2CFADC0123A340084A526933EA020280
:10161400F3D1064A536156F83430002BEDD006EB73
:10162400C402516820469847E7E770BD00040140B2
:1016340008B501238340044A11680B431360034B2C
:101644001856FFF7D3FC08BD000401406C5F000886
:101654001F2806DC01238340024A106820EA0300A5
:101664001060704700040140032932D8DFE801F01C
:10167400020F1B27012303FA00F0164B9A6822EA93
:1016840000029A60DA6822EA0000D86070470123F9
:1016940003FA00F00F4B9A6802439A60DA6822EA70
:1016A4000000D8607047012303FA00F0094BDA68A0
:1016B4000243DA609A6822EA0000986070470123C6
:1016C40003FA00F0034B9A6802439A60DA68104305
:1016D400D860704700040140074B53F830303BB9E1
:1016E400054B43F8301003EBC00042600020704704
:1016F4006FF00F00704700BF84090020034B0022E5
:1017040043F8302003EBC0035A607047840900207B
:1017140084B00B68022B11D0032B1AD01BB16FF0CD
:10172400850004B070474B680F4AD1691943D161F1
:10173400D26913400193019B0020F2E74B680A4AE7
:10174400516A19435162526A13400293029B00206A
:10175400E7E74B68044A116A19431162126A13409D
:101764000393039B0020DCE7003802400B68022B44
:101774000DD0032B13D013B16FF085007047496867
:101784000B4AD36923EA0103D361002070474968F7
:10179400074A536A23EA01035362002070474968E9
:1017A400034A136A23EA010313620020704700BF4F
:1017B4000038024070B50C4615460D4B1E680121D9
:1017C400304602F086FD2368062B0ED8DFE803F0CE
:1017D4000404070A0D0D04002E60002070BD28606B
:1017E4000020FBE728600020F8E76FF08500F5E7AC
:1017F400D8020020104B1B6813F0020F09D10E4AC7
:10180400136843F0010313600B4B1B6813F0020FC2
:10181400FAD0094A936823F0030343F00103936069
:10182400936823F0F00318439060034B9B6803F024
:101834000C03042BF9D170470038024010B586B070
:1018440003A802F041FD00F01DF801A802F044FDD8
:101854000020FFF7CFFF0A4C236823F08073236036
:1018640003A901A801F0E0F8236823F4803323607E
:10187400236823F480732360002006B010BD00BFEA
:101884000038024082B0064B1A6A42F001021A6222
:101894001B6A03F001030193019B02B0704700BF70
:1018A4000038024010B504460A2807D0074B1868D0
:1018B400E1B28368DB699847204610BD034B186882
:1018C4008368DB690D219847F0E700BF040A002014
:1018D40010B5044C2046FFF785FE2046FEF77AFE3D
:1018E40010BD00BFA918000808B50948094B1860C5
:1018F40003F09BFD28B1002333B9FFF7E9FF002073
:1019040008BD6FF01203F7E76FF01200F8E700BFAD
:10191400745B0008040A00202DE9F0411446436872
:101924001E69481E5A69824217D99F6900EB400517
:101934004FEAC50807EBC50500F016FA0138084B55
:101944001B5C1E4473689BB2636017F808306370B5
:10195400AB7923700020BDE8F0816FF01500FAE741
:10196400945F0008F8B54268966901EB4103DB0017
:10197400183B1E4417694C1E5369A34215D90546EA
:10198400204600F0F1F90138094B1A5CBB5823F0EA
:101994000203BB502146384602F0BAFD21462846D0
:1019A40002F031FD0020B071F8BD6FF01500FBE7C7
:1019B400945F00082DE9F84F1F46406806694C1EE5
:1019C4004369A3426AD99046D0F818A004EB4405B1
:1019D4004FEAC50B0AEBC5052146304602F098FDD7
:1019E400814600285DD15AF80B10012907D002293D
:1019F4002FD071B36FF015094846BDE8F88F204623
:101A040000F0B2F90138DFF8A0A01AF8003033442E
:101A1400C3F80C80204600F0A7F901381AF800300A
:101A240033449F602B7943B3204600F09DF9AB68A3
:101A34000A9AB2FBF3F301381B4A115C31444A6839
:101A4400120C120413434B602146304600F0F6F9A1
:101A5400D2E7204600F088F90138DFF84CA01AF8E4
:101A640000303344C3F80880204600F07DF9013883
:101A74001AF800303344DF60D4E7204600F074F9EC
:101A8400EB680A9AB2FBF3F30138074A115C31445C
:101A94004A68120C120413434B60D5E76FF0150922
:101AA400AAE76FF00F09A7E7945F00082DE9F04F4C
:101AB4008BB006460D461446D0F804B0DBF81890F7
:101AC40001EB4107FF00183F09EB0708DBF810A002
:101AD40028220021684602F07BFB638803F4FE633E
:101AE400B3F5FE6F68D0013DDBF81430AB4240F231
:101AF400EF8098F80630002B40F0ED8029465046E0
:101B040002F006FD002840F0E9802946304602F044
:101B14007AFC22695369B3F5803F80F0E280E18862
:101B2400A388994240F0E080042B04D0022B02D019
:101B3400012B40F0DC80137FC3F38012B2EBD31F80
:101B440040F0D880012388F80630A369C8F814301F
:101B54002388C3F3C21349F807306269C8F8102018
:101B6400A288C8F80820E288C8F80C202269116805
:101B74005068012B2DD000910190206809A9C0F371
:101B8400833002F0B0FB061E12DB208802A9C0F3EA
:101B9400C21002F0C3FB061E0ADB2388C3F3C21380
:101BA400012B00F08380022B17D0B3B16FF0150620
:101BB40030460BB0BDE8F08F012388F8063088F872
:101BC4000530A369C8F814306369C8F810300026DA
:101BD400EEE7019153680093CFE7236993F81CB0B3
:101BE400CBF30110CBF3810B05A902F0AAFB061E6F
:101BF400DEDB04A9584602F0B5FB061ED8DB2369D8
:101C04001B7F13F0400F59D02023039359F807305A
:101C1400022B14BF0023012388F80430A38893FA0D
:101C2400A3F2B2FA82F20BB94FF0FF32334B53F8FE
:101C340022300693E38893FAA3F2B2FA82F20BB944
:101C44004FF0FF322E4B53F82230079398F80430AC
:101C5400002B36D023695B69A288B3FBF2F30893A7
:101C6400284600F081F801466A46504600F0F4FD2B
:101C7400284600F079F80138224B1A5C5AF80230F1
:101C840043F002034AF8023023691B7F13F0400F2C
:101C94008ED0284600F068F801381A4B1A5C5AF8BE
:101CA400023043F004034AF8023081E7236993F8D1
:101CB4001CB0CBF38100CBF3011B95E70023039306
:101CC400A4E723695B69E288B3FBF2F30893C7E7EF
:101CD4006FF015066CE76FF00F0669E76FF00F06FB
:101CE40066E76FF0150663E76FF0150660E76FF0BF
:101CF40015065DE76FF015065AE700BFDC5F0008C4
:101D0400D05F0008945F000870B505464468154824
:101D140003F08BFB58B1134883681B68214698472E
:101D24000646DEB9A3682846984700230AE06FF008
:101D34001206F6E7A26903EB430102EBC10200219C
:101D44009171013362699342F4D32A6900231360C9
:101D54002A6953602A699360304670BD6FF00406A7
:101D6400FAE700BF845A0008014B53F8200070477B
:101D74007C60000808B5024B53F82130984708BD31
:101D84006060000808B5024B53F82130984708BD3D
:101D94004460000808B5044B53F8213098470038D4
:101DA40018BF012008BD00BF2860000808B5044B17
:101DB40053F821309847003818BF012008BD00BFF0
:101DC4000C60000808B5024B53F82130984708BD51
:101DD400F05F000838B504460D460846FFF7C4FF17
:101DE4000138084B1B5C1B5913F0020F01D1002072
:101DF40038BD29462046FFF7D9FF08B10120F7E78F
:101E04000020F5E7E85F000838B504460D460846AB
:101E1400FFF7AAFF0138084B1B5C1B5913F0040F92
:101E240001D1002038BD29462046FFF7B3FF08B191
:101E34000120F7E70020F5E7E85F000810B5044645
:101E44000846FFF791FF0138034B1A5CA35843F08F
:101E54000103A35010BD00BFE85F000810B504469D
:101E64000846FFF781FF0138074B1B5CE25822F05C
:101E74000102E250E35813F0010F01D1002010BD1C
:101E84006FF00A00FBE700BFE85F00084A4201F078
:101E9400030302F0030258BF534204339A000F2392
:101EA40093400A46002919DB43EAA20303F0030C1A
:101EB4000CF102010B4A52F821101A0C21EA1343C7
:101EC40092FAA2F262B1B2FA82F200FA02F21A4370
:101ED4000CF1020C034B43F82C207047CA1CE3E7B7
:101EE4002022F2E700000140424200F0030302F026
:101EF400030258BF534204339A000F23934002460F
:101F0400002811DB43EAA20000F003030233084A6D
:101F140052F82320030C02EA104093FAA3F32BB1E6
:101F2400B3FA83F3D8407047C21CEBE72023F9E7E8
:101F34000000014070B582B006460D460D4B93E893
:101F4400030002AB03E903000B4803F06EFA48B147
:101F5400094883681B686946984704462CB12046A3
:101F640002B070BD6FF01204F8E729463046FFF75F
:101F74008DFFF4E7005E0008845A0008F8B50C46AB
:101F8400114647680269B1F5005F1FD01D46B1F5DF
:101F9400804F34D01D492046FFF79EFB064688BB80
:101FA4002146B868FFF7C6FFB5F5802F23D0B5F5F5
:101FB400C02F22D0B5F5003F1BD031462046FFF795
:101FC40053FB2046FFF734FB3046F8BD2046FFF7AD
:101FD4008BFFBB68984201D00026F5E72046FFF747
:101FE40037FB2046FFF78AFB00212046FFF73CFB26
:101FF400F2E70221E2E70121E0E70321DEE76FF0E7
:102004008506E1E76FF00F06DEE700BFBD46000876
:1020140010B5446869B10C340D4803F006FA28B1D0
:102024000B4883681B682146984710BD6FF0120067
:10203400FBE70C34064803F0F8F928B10448836838
:102044005B6821469847F0E76FF01200EDE700BFA8
:10205400845A00080048704788610008F8B503698D
:102064001D680F4659B90026A7B16B6843F00203F7
:102074006B606B6843F001036B603046F8BD044647
:1020840002F0FEFC06460028EED020690C3000F079
:10209400C5FEF2E76B6813F0020F0CD00A4BEB603D
:1020A4000A4BEB600A4B2B61A3F1F343A3F519230D
:1020B400A3F6A9132B61074B5B6813F0020FDCD066
:1020C4006FF00406D9E700BFEFCDAB890504030226
:1020D400BFAE9D8C003C024038B504460569154AE4
:1020E400136843F001031360124B1B6813F0020FD3
:1020F400FAD00435104803F098F9A0B10E4883686B
:102104001B682946984788B920690C30012211467A
:1021140003F013FA02F0B2FC002803DB002120468E
:10212400FFF79CFF38BD6FF01200ECE76FF004007E
:10213400F8E700BF00380240845A0008074B1B68C8
:1021440033B9064B4FF4006018604FF48070586048
:10215400024B0B6001231360704700BF1C0B00206F
:102164002DE9F04782B00C46066943681D680A7978
:10217400012A00F09180022A40F091804FF4806C93
:102184006379012B00F09180022B00F09080002BEA
:1021940000F088804FF40057A179042900F08A8068
:1021A400002A40F08A804FF0000894F807A0BAF1A2
:1021B400010F00F085804FF0000EA2F103095FFAD1
:1021C40089F9B9F1010F40F2C28012B1042900F07B
:1021D400C180002B00F0C180022B00F0C1800229D5
:1021E40040F2C180042900F0C180BAF1000F0FD081
:1021F400634B9D4208D0A3F574439D4204D003F57C
:1022040080639D4240F0B580BAF1010F40F0B48084
:10221400EB6823F40053EB6043681A68D36803F453
:10222400C0639C4505D0D36823F4C0634CEA030320
:10223400D36043681A68136903F440539F4204D07F
:10224400136923F440531F43176143681A68D36822
:1022540003F48053984505D0D36823F4805348EAA7
:102264000303D36043681A68536903F440739E45BB
:1022740005D0536923F440734EEA03035361D4F841
:102284000080336898451ED1EB6843F40053EB603B
:10229400002002B0BDE8F0874FF4C06C70E74FF047
:1022A400000C6DE74FF4805776E7002774E74FF48E
:1022B400405771E74FF4805877E74FF4805874E73C
:1022C4004FF4407E79E70369D0F8049059F80C7B09
:1022D400D3F804A0504603F0A8F890B3DAF8083015
:1022E400DB688BB301AA494650469847002825DB92
:1022F400FB6823F40043FB60019A02EB820202EBC9
:1023040082024FEA8808B2FBF8F21E48A0FB0213CF
:102314005B09190189B24FF0640C0CFB13231B01F8
:102324003233A0FB0323C3F34F1303F0F0020A4438
:1023340092B203F00F0313449BB2BB602368336073
:10234400A2E76FF01200D1E76FF05700CEE76FF00D
:1023540085009EE76FF085009BE76FF0850098E7A6
:102364006FF0850095E76FF0850092E76FF08500C8
:102374008FE76FF085008CE76FF0850089E700BF79
:10238400003801401F85EB512DE9F04105460469F1
:1023940043681E68A060A06940B103F046F80028B5
:1023A40000F088800023002B40F0AA80D4F8B030DD
:1023B40043B1A06903F039F800287ED00023002B34
:1023C40040F0A1802B69002783F8A8706B681A6815
:1023D400536923F0800353614C4904F1780003F0FE
:1023E40028F94B4904F5887003F023F904F14408F3
:1023F40020223946404601F0EBFE04366664A764A9
:1024040094F83D30002B5BD094F860306FF3830375
:1024140084F8603094F83E30002B59D094F8603042
:102424006FF3051384F8603094F860306FF386130B
:1024340084F86030DBB26FF3C71384F86030226C29
:1024440094F8613062F3030384F86130C4F8308097
:1024540065630027C4F84871C4F84C7104F1DC08C2
:1024640020223946404601F0B3FEC4F8E060C4F8C7
:10247400DC7094F8D5309BB394F8F8306FF3830391
:1024840084F8F83094F8D63093B394F8F8306FF3B6
:10249400051384F8F830D4F8D82094F8F93062F3AE
:1024A400030384F8F930C4F8C880C4F8CC50002081
:1024B400BDE8F0816FF0120375E76FF012037EE759
:1024C40094F86030022262F3830384F86030A1E759
:1024D40094F86030022262F3051384F86030A3E7B5
:1024E40094F8F830022262F3830384F8F830C9E7E1
:1024F40094F8F830022262F3051384F8F830CAE73E
:102504006FF01200D4E76FF01200D1E755530008C2
:10251400635000082DE9F04782B004464668076915
:10252400B04658F80C5B4C48786002F07EFF0028F7
:102534007CD0494883681B6841469847002840F08E
:10254400888063681A68316AF06901F003FD002825
:1025540069DBEB6823F40053EB60EB6843F00C0396
:10256400EB60B369022B69D0012B62D000221146C3
:10257400EB6823F4B0530A431343EB602B6923F451
:1025840040532B61337D2BB163681A68536943F45C
:1025940040735361D7F800802369D4F8049059F844
:1025A4000C7BD3F804A0504602F03FFF00284AD029
:1025B400DAF80830DB68002B48D001AA49465046B7
:1025C4009847002825DBFB6823F40043FB60019A4D
:1025D40002EB820202EB82024FEA8808B2FBF8F2B5
:1025E4001E48A0FB02135B09190189B24FF0640C69
:1025F4000CFB13231B013233A0FB0323C3F34F1340
:1026040003F0F0020A4492B203F00F0313449BB2A6
:10261400BB60EB6843F40053EB60B3682046984713
:102624002046FFF7B1FE02B0BDE8F0876FF012005C
:1026340084E74FF480524FF4C06199E74FF480521D
:102644004FF4806194E76FF01200BAE76FF057001F
:10265400B7E76FF00400E6E7845A00081F85EB51E2
:102664004FF0E02399691A69986912F4803F01D107
:10267400814208D2074B1A68074909680A441A605C
:102684004FF0E0231B69044B1B681B1A014A1068B6
:1026940018447047300B00202C0B002008B5FFF7BE
:1026A400DFFF0C4B18680C4A1168084410600022C4
:1026B4001A600A4A1368C01A0949A1FB0010800A6B
:1026C4004FF4486101FB0033136001F0E7F9FEF7B2
:1026D40091FD08BD300B0020280B0020240B0020A6
:1026E4001F85EB51094B102283F8232040F67F42CB
:1026F400074B1A600020074B18604FF0E0235A6123
:1027040098611A6942F007021A61704700ED00E00F
:102714002C0B0020300B002011B1B0F1FF3F0FD083
:1027240070B5374B1D68B0F1FF3F14D0461E002E24
:1027340014DD41F278439E4211DD41F279460EE008
:102744004FF0E022136923F0010313612C4B4FF087
:102754007F421A60704741F27940E7E700264FF064
:102764001003EFF3118483F31288BFF36F8FFFF725
:1027740077FF4FF0E0239969224B1A6810441860E0
:10278400214B00221A60214B1B68C21A15D44FF446
:10279400486C0CFB062202F67F421D4EA6FB026229
:1027A400920A1B1A0CFB0233B3F5806F0AD9194A3B
:1027B400934209D9124B1A6008E0114B4FF480621E
:1027C4001A6003E04FF480630D4A13604FF0E02376
:1027D4009E690B4A1268013A5A6100229A61B14219
:1027E40009D2AD1B0D442844064B186084F31188AC
:1027F400BFF36F8F70BD8D1B2844024B1860F5E743
:102804002C0B0020280B0020300B0020240B002070
:102814001F85EB5180E8FF0010B54FF01003EFF374
:10282400118483F31288BFF36F8FFFF719FF074BEF
:102834001B681844064B1B68C01A84F31188BFF345
:102844006F8F044BA3FB0030800A10BD280B0020BF
:10285400240B00201F85EB5110B59368D4682343E3
:10286400146923435469234394692343D469234358
:10287400546A234301390F4C14F801E00EEB000CA9
:102884005EF8001021F4FF4121F070010B434EF873
:1028940000305368CCF80C301368CCF80830126A56
:1028A400DCF804301B0C1B041343CCF80430002068
:1028B40010BD00BF546200080A68920C044B9B5C74
:1028C40003FB00F04B689B0D0133B0FBF3F0704742
:1028D40048620008044B1B6813F0007F01D00120FC
:1028E40070470020704700BF00380240014B186059
:1028F400704700BFD8020020421E1B4B9A4231D2BF
:102904001A4B1B6803F4C053B3F5006F1CD0174B6C
:102914001B6803F4C053B3F5805F1AD0144B98427C
:102924001CD9144A136843F0040313600121114AAB
:10293400136823F001030B431360136803F00103CE
:1029440099420DD0012070470B4B9842E9D80021E1
:10295400EDE70A4B9842E4D80021E8E70021E6E7D6
:1029640000207047012070470048E80100700040D3
:1029740080841E00003C02400024F40000127A000F
:1029840070B50C460B68C3F30313244AD35C20FAD6
:1029940003F5234B1B68AB422FD30026214A13684F
:1029A40043F0807313601F4B1B6813F0007FFAD051
:1029B40022681C4B996821F0F0010A439A609A68D6
:1029C40042F003029A60174B9B6803F00C030C2B34
:1029D400F9D16268134B996821F4E0610A439A6063
:1029E400A268996821F460510A439A600C4B1B68F1
:1029F400AB4209D86EB1304670BD2846FFF77CFF64
:102A040006460028F2D1C9E72846FFF775FF0646B7
:102A1400F0E72846FFF76AFFEDE700BF38620008D9
:102A2400D80200200038024038B504460D46FFF7AE
:102A340051FFF8B921461048FFF73EFF0F4B1B68C2
:102A440013F0020F09D10D4A136843F00103136018
:102A54000A4B1B6813F0020FFAD022686468074916
:102A64008B6823F47D03224313438B602946FFF7CD
:102A740087FF38BD0120FCE70024F4000038024041
:102A8400034B00E01833034A9342FBD3704700BF63
:102A9400845A0008BC5B000870B50646114B53F815
:102AA400204009E0404217E0EB681870EA68537868
:102AB40043F0010353700834731C0A4A52F823305C
:102AC400A3420DD96568236828469847002DF2D0A3
:102AD4000028EBD00028E5DBFF28E5DDFF20E3E755
:102AE40070BD00BF5C62000838B5054628B30378A2
:102AF4002BB3144C00E01834134B9C4208D02046EE
:102B040002F093FC0028F6D02368AB42F3D112E024
:102B14000C4C00E018340C4B9C420BD0204602F0C5
:102B240084FC0028F6D02168284601F004FB002824
:102B3400F0D100E00024204638BD0446FBE7002421
:102B4400F9E700BF845A0008BC5B000810B586B0E2
:102B5400104C04EBC01400EBC00C00EB40000E4B17
:102B640003EBC00000230593012204920F22039279
:102B7400029301930090094B4FF48072084901EBD2
:102B84004C11204600F0D8F8637B23F004036373F0
:102B940006B010BD18030020340B00202755000890
:102BA400A00F002070B586B000F090FD1B4D1C4BAB
:102BB4009D611C4B05930123049300240394029408
:102BC40001940094184B4FF480621849284600F091
:102BD400B3F806466B7B23F004036B73284602F0BC
:102BE4009CFD002C02DD304606B070BD2046FFF788
:102BF400ADFF0F4A02EBC41204EB4401084B03EB94
:102C0400C103DA601C7504EB84110A4A02EB411219
:102C140002F502625A600134E3E700BF9803002022
:102C2400340B0020746200083D2C0008800B002047
:102C340018030020C010002008B50B4B01221A70A5
:102C44000220FFF729FF00F0ABFF01F085F8032015
:102C5400FFF722FF00F0A0F8FDF750FC034A137BB6
:102C640023F00103137308BD7D0B0020980300209B
:102C740008B50146014A0248FEF792FA3D2C0008C5
:102C84009803002008B50348034A121A002101F0F2
:102C94009FFA08BD18030020800B002000B5A1B0E6
:102CA4001B4B83F308881B4C636943F40073636113
:102CB400F02384F822300025E57725766576A5761D
:102CC40084F82050636A43F4E0236362FEF7A2FBB6
:102CD400FEF778F94FF0FF33A362E362FEF760FC7E
:102CE400FEF7F0FB01248DF80D408DF80C4019958A
:102CF4001A95094BC3F808D0FFF7C2FE2846FFF720
:102D0400CBFE2046FFF7C8FEFFF74CFFFFF7B0FFEE
:102D1400E018002000ED00E0340B002008B553EA71
:102D2400020102D102F0CCFB08BD0249183000F0C8
:102D340027FEF9E757570008F0B585B004460E465C
:102D440015461F4600F158038365C3650E9B042294
:102D54000D9902F0B9FB2A463146204602F098FB51
:102D640005460C9B02930B9B01930A9B00933B46E5
:102D7400024631462046FEF7CDF900236365054B34
:102D84009B6823B11B6F2367284605B0F0BD2367FA
:102D9400FAE700BF340B002010B586B01D4C14E0D8
:102DA400E36A0593236A0493E3690393A369029393
:102DB4006369019323690093E368A26861682068EA
:102DC400FFF7BAFF23685C653034134B9C42E7D3AA
:102DD40000F060FA0F4C00E030340F4B9C4214D2E8
:102DE400636AB3F1FF3FF7D023EAE373D817820095
:102DF40042EA93729900C91840EB02004A1840EB6A
:102E040000032068FFF78AFFE6E700F0EDFB06B059
:102E140010BD00BF180300201803002038B5044675
:102E24004FF01003EFF3118583F31288BFF36F8F14
:102E340002F013FD40B10022826702F06EFC2946C5
:102E4400064800F00BFA38BDA368E268934203D049
:102E540001221344A360F2E70022FAE7580B002092
:102E640010B582B04FF01004EFF3118184F312888F
:102E7400BFF36F8F846844B1013C846081F311888F
:102E8400BFF36F8F002002B010BD53EA020406D0D6
:102E9400009201930246054800F050FBF3E781F3EA
:102EA4001188BFF36F8F6FF00F00ECE7580B002011
:102EB400F8B50D46C36813F0020F5CD1044613F055
:102EC400040F5DD10B68002B38D0E36813F0010FB9
:102ED40037D0A3682B6002272E68002E3FD0294BE1
:102EE4009B68B3422FD000231A46D6F89830C3F318
:102EF4008001C3F3C00013F0010F33D001B1A2B3BA
:102F040000B1A9B300232360D6F8843013B31C6046
:102F1400C6F884402EB10022114606F1880002F062
:102F2400C7FC0120002806DBE36843F00403E360E8
:102F34002B68A3603846002821DC1EE083680B6000
:102F4400C3E70127C8E702F0B2FA08B90123CBE7C7
:102F54000023C9E7C6F88440C6F88040DAE76FF07A
:102F64001500DFE76FF01200DCE76FF00F00D9E720
:102F74006FF00F00D6E76FF00F0000232B60F8BD51
:102F84000020FAE7340B002008B58446084653EACB
:102F940002010CD0C16841F00801C160DCF80010E6
:102FA40081620549103000F0EBFC012008BD614648
:102FB400FFF77EFFFAE700BFCF55000870B505465E
:102FC400C36823F00203C3601A4B1B68FBB11C46A1
:102FD40003B11C6800261FE01A4666B11968316007
:102FE400144949688B420FD00021116003F1080095
:102FF400FFF714FF15E018680E49086049688B4212
:10300400F2D10C494860EFE70A494E60ECE71C46F0
:10301400E0E722462346144653B15A68AA42DBD05D
:103024001E46002CF5D02246002CF3D02268F1E78E
:1030340070BD00BF600B0020F0B585B0054616E0FA
:10304400D5F8983023F00402C5F8982013F0040F43
:1030540059D1002302934FF0FF324FF0FF33CDE9F3
:10306400002305F1880231462E4800F013FC4FF08E
:103074001003EFF3118683F31288BFF36F8FD5F833
:103084008040002CDCD02368C5F88030D5F884203B
:10309400944235D0D5F8983043F00203C5F89830FF
:1030A400E36843F00103E36023F00403E36063682F
:1030B400002CCED086F31188BFF36F8F204698473B
:1030C4004FF01003EFF3118683F31288BFF36F8F71
:1030D400E36823F00103E36013F0020F1ED1D5F877
:1030E400983023F00203C5F89830C3F3002386F325
:1030F4001188BFF36F8F002BB9D100F0F5FAB6E752
:10310400C5F88430C6E705F190070022012138464E
:1031140002F0CEFB0028F8D10023C9E72046FFF7D0
:103124004DFFDCE75C0B0020F0B589B004460E9D32
:103134000020C4F88000C4F8840004F18800C4F8B6
:103144008800C4F88C0004F19000C4F89000C4F81E
:103154009400FDB12879F8B90120C4F898004FF023
:10316400FF364FF0FF37CDE9066700200490039344
:103174000290019000940A4B204602F0B0F925B168
:10318400296811B1204602F098F9204602F098F916
:1031940009B0F0BD0120E0E740F20110DDE700BF17
:1031A4003D30000808B50146014802F04EFA08BD5A
:1031B40020040020B3F1FF3F08BFB2F1FF3F00D16C
:1031C400704708B50249183000F0DAFB08BD00BFAB
:1031D4005757000808B5084B1B6803B908BDFFF72B
:1031E4001BFB0346044A10680344044A136100218C
:1031F40002F0CAFBF2E700BF740B0020340B00207E
:1032040070B504460D4600234FF01002EFF311860B
:1032140082F31288BFF36F8F0CE0022BB8BF022336
:1032240013600B4B1D60FFF7D5FF86F31188BFF3C6
:103234006F8F012353B9074B00221A6104EB8403F7
:103244005B00054A1360002CE7DCEAE770BD00BFB1
:10325400700B0020340B0020740B002008B50846C6
:1032640021B9EFF3058313B9012100E0002111F026
:10327400010F07D0064B9A699B689A4202D0FDF76A
:10328400F5FE03E080F31188BFF36F8F08BD00BF24
:10329400340B002000234FF01002EFF3118182F36E
:1032A4001288BFF36F8F09E0064B9A68D37B013B0A
:1032B400D37381F31188BFF36F8F0123002BF3D0F5
:1032C400704700BF340B002038B504460F4802F0A5
:1032D4001DFA054670B184B90D4B9B685A7B12F0F8
:1032E4001F0F0AD1AA6942B9DA897F2A05D9084A87
:1032F40093610AE0064BDD68EDE7054B9B68AB4242
:1033040001D0FFF767FF024B9D6138BD500B0020D1
:10331400340B002038B50546427B90F90D30002B64
:1033240028DB6B7B63F07F036B731A4B53F81C4FE2
:103334009C422DD06CB12146284602F0C0F90028E9
:1033440020DC34B1134B1B6A9C4202D02468002C4D
:10335400F0D1104B1A6A03F11C0129606A601560F0
:103364001D620C4B9868A84214BF00200120FFF78F
:10337400ABFF38BD02F07F0242730146064802F0FB
:10338400BDF9CEE763686B602C601D606560E8E79B
:103394000024CFE7340B0020500B002010B54FF071
:1033A4001003EFF3118483F31288BFF36F8F214B63
:1033B4009B68214A1268934217D01F4A002111606A
:1033C4001E4A126872B3DA897F2A15D85A7B12F022
:1033D4001F0F1BD193F90E10194A1268914217DB83
:1033E400184A934216D0012207E0FFF7F3FE84F354
:1033F4001188BFF36F8F1CE000229AB10D4A126945
:10340400824209DD101A0B4B18610EE00022F4E72A
:103414000022F2E70022F0E71846FFF77BFFFFF7F0
:10342400D9FE02E0034B00221A6184F31188BFF332
:103434006F8F10BD340B0020680B0020740B00202C
:10344400700B00201803002038B5437B90F90D2041
:10345400002A2DDB044613F01F0F05D182690AB13F
:10346400002202E0012200E000220AB363F07F039D
:103474006373144B53F81C5F9D4220D06DB12946F1
:10348400204602F01CF9002813DC35B10D4B1B6AF1
:103494009D4202D02D68002DF0D10A4B1A6A03F127
:1034A4001C012160626014601C620020FFF70CFFA5
:1034B40038BD6B68636025601C606C60F5E70025AF
:1034C400DCE700BF340B002010B54FF01003EFF31E
:1034D400118483F31288BFF36F8F437B13F0040FBF
:1034E40004D184F31188BFF36F8F10BD23F004035C
:1034F4004373FFF7A9FF21460148FFF7AFFEF4E746
:103504006C0B002010B50446427B90F90D30002B63
:1035140008DB084B9868A04214BF00200120FFF785
:10352400D3FE10BD02F07F0242730146024802F04E
:10353400E5F8EEE7340B0020500B002010B50C46E4
:103544001146064B9868064B1860DDE9022302F029
:1035540062F92046FDF78AFD10BD00BF340B002040
:10356400680B002038B50446183002F0EFF9002348
:103574004FF01002EFF3118582F31288BFF36F8FBF
:1035840010E0637B43F010036373154B9868A0420B
:1035940014BF00200120FFF797FE85F31188BFF3C5
:1035A4006F8F012363B9627B94F90D30002BE8DA45
:1035B40002F07F02627321460A4802F09FF8E0E7B6
:1035C400074B9B68A34200D038BD4FF01003EFF3C4
:1035D400118083F31288BFF36F8F02F07AF8F3E758
:1035E400340B0020500B002010B500234FF01002C4
:1035F400EFF3118482F31288BFF36F8F0CE00D4B4D
:103604009A68D37B0133D3730020FFF75DFE84F304
:103614001188BFF36F8F0123002BF0D04FF01003FC
:10362400EFF3118083F31288BFF36F8F02F051F828
:1036340010BD00BF340B0020437B13F0080F42D1B0
:1036440070B5054643F00803437303F0DF03437387
:1036540013F0800F2BD1AB685BB1284602F02DF834
:10366400294602F04BF86B7B23F002036B730023B3
:10367400AB6005F1180002F069F958352C68AC42CA
:103684001DD0E4B1204602F018F8214602F036F8C5
:10369400637B23F0020363730026A66004F1180021
:1036A40002F054F9A6672046FFF7CEFEE6E703F0E2
:1036B4007F0343730146044802F020F8CBE701205E
:1036C400FFF702FE70BD7047500B002008B5054B94
:1036D40003F11C02DA611A6200210846FFF790FD2B
:1036E40008BD00BF340B0020F8B54FF01003EFF312
:1036F400118683F31288BFF36F8F1C4CA1684B7B38
:1037040003F07F034B7304F11C07384601F0F6FF06
:10371400A5686B7B63F07F036B73E469BC4223D0C1
:103724006CB12146284601F0CAFF002816DC34B1EA
:103734000E4B1B6A9C4202D02468002CF0D10B4B28
:103744001A6A03F11C0129606A6015601D62012078
:10375400FFF7BAFD3046FDF789FCF8BD63686B607E
:103764002C601D606560F2E70024D9E7340B00206B
:103774002DE9F04150EA010338D004460E466FF0BB
:1037840001031B1A4FF0FF3262EB0102012B72F1AD
:1037940000032FDB6FF001052D1A4FF01003EFF338
:1037A400118883F31288BFF36F8F144FB868144BDA
:1037B4001860FFF7A7FEB86822463346114918304F
:1037C40000F0DEF8BA68537B43F0100353734046AD
:1037D400FDF74CFC02F003F9281A63EB03030128FC
:1037E40073F1000300DA0020BDE8F081FFF77CFFED
:1037F4000020F9E702F0F3F80519CEE7340B0020B6
:10380400680B00205757000808B5B1F1FF3F08BF07
:10381400B0F1FF3F07D0FFF7ABFF0A220023C11727
:10382400FCF77EFC08BD034B9868FFF79BFE4FF046
:10383400FF30F7E7340B0020014B9868704700BF56
:10384400340B002038B54FF01003EFF3118583F3E8
:103854001288BFF36F8F437B13F0080F04D085F3F6
:103864001188BFF36F8F38BD0446FFF7E5FE084BA0
:103874009B68A34204D085F31188BFF36F8FF2E7EE
:10388400EFF30583002BF6D12846FDF7EFFBF2E7B3
:10389400340B00202DE9104883B0089CDDE906BCF8
:1038A400CDE900BCFFF74AFE1CB1034B9B685B6982
:1038B400236003B0BDE81088340B002008B5064827
:1038C400064A121A064900F054FC064A06490748FB
:1038D40000F04FFC08BD00BF0000002018030020CA
:1038E400C062000800000000C06200080000002060
:1038F400034B1868984200D070470020FCE700BFD3
:10390400DC02002030B1044A5268904201D00068C1
:1039140070470020704700BFDC02002008B5044B4C
:103924001B680BB1002008BDFEF776FFFBE700BF64
:10393400780B002010B5FFF7DBFF0446FFF7EEFF1E
:103944008CB1236962691B1A62EBE072012B72F17C
:10395400000111DB1846B3F1004F72F1000304DBE0
:103964006FF0004001E06FF00040044B1B6913B19D
:10397400834200DA184610BD0020F6E7340B00201D
:10398400B3F1FF3F08BFB2F1FF3F7FD02DE9F84309
:10399400044691461D46816000234FF01002EFF368
:1039A400118782F31288BFF36F8F21E0FFF7B6FF10
:1039B40019EB000845EBE07018F1010340F1000039
:1039C4002361606138E0511A66EB030301614361CE
:1039D4004368636020601C604460002840D0FFF7A7
:1039E40087FF844243D087F31188BFF36F8F01238D
:1039F400002B49D16FF00102B2EB09024FF0FF3105
:103A040061EB0503002BD1DB214B1A685B6819EBD2
:103A1400020243EB05036FF00108B8EB020861EB07
:103A2400030341461A46B8F1010F73F1000301DAAA
:103A34000121002221616261FFF75AFF0028CCD0E6
:103A44000269466921696369914273EB060CBADB2A
:103A5400891A63EB060321616361FFF753FFEDE706
:103A64000C4B5A682360626014605C60B7E7FFF730
:103A740061FF034618B1084A12698242B3D000219B
:103A84001846FEF749FEAEE7BDE8F883704700BF6D
:103A940018040020DC020020340B002070B504461A
:103AA400FFF77CFC4FF01003EFF3118583F31288CA
:103AB400BFF36F8F284B1C6020E0284801684668DC
:103AC400891846EBE276016046609B1A224A13602D
:103AD40000220023C4E90423204601F020FF85F3DB
:103AE4001188BFF36F8FA368204698474FF01003E7
:103AF400EFF3118583F31288BFF36F8FFFF7F8FE9E
:103B0400044640B102694169134B1B68D8179342BC
:103B140070EB0101D1DA44B10F4B19682369626972
:103B24005B1A62EBE172236162610C4A0A4E3068EF
:103B3400136851681B1841EBE07113605160002455
:103B44003460FFF7F7FE2146FEF7E6FD85F31188A2
:103B5400BFF36F8F70BD00BF780B002018040020E6
:103B640010B500234FF01002EFF3118482F3128892
:103B7400BFF36F8F184619460CE0FEF74DFE074A57
:103B840013685168C01841F1000184F31188BFF330
:103B94006F8F0123002BF0D010BD00BF180400204C
:103BA40008B5034A0349044800F025F808BD00BFDE
:103BB4007C5E00087C6200088C62000810B584B04A
:103BC400084B029300248DF80C4002AB00934FF095
:103BD400FF334FF4806204490448FFF7A5FA2046F6
:103BE40004B010BDB4620008E018002020040020D6
:103BF4007047002070470FB400B583B004A951F892
:103C0400040B0191FCF7ECFC03B05DF804EB04B089
:103C1400704708B50446084611461A46A047FFF700
:103C24000BFEFDF739FC84460268002005E000EB3A
:103C34008000013203EB400030381378A3F13001E7
:103C44000929F4D9CCF8002070472DE9F04F83B04E
:103C540004460D4601929A460C9ED378A3F1410B7B
:103C64006F2B0FD006D9702B0FD0782B10D14FF0BB
:103C7400100926E0582B02D04FF00A0921E04FF03A
:103C840010091EE04FF008091BE04FF0100918E07E
:103C94004FF00A0915E0BBF1190F21D8D2B237321F
:103CA400D2B206F8012D3A46434620462946FCF78F
:103CB40037FABC4275F1000316D3564514D90446AD
:103CC4000D464FF000084F464A46434620462946D3
:103CD400FCF726FA092ADED8D2B23032D2B2E0E7B3
:103CE400D2B25732D2B2DCE7019B1B7813F0200F1B
:103CF40005D0B9F1080F06D0B9F1100F09D030463C
:103D040003B0BDE8F08F019A937843F008039370F1
:103D1400F5E7019A937843F010039370EFE72DE9E8
:103D2400F04107460E4614469846002506E0314603
:103D340014F8010BB847002809DB01354445F6D3D4
:103D4400B8F1000F02D12378002BF0D12846BDE84A
:103D5400F08170470020704708B5FDF7FDF8FDF7C6
:103D6400EDF808BD70B504461E4600F2044000F0AC
:103D7400A8F805460EB9284670BDD4F8000400F032
:103D840004F80023C4F80034F5E770472DE9F04344
:103D940085B00446C06801AA00F048FE054600BB91
:103DA400236A019FBB421CD0E668DDF80890D6F870
:103DB4000880D8F80C3023B10021304698470546D6
:103DC40060B9D8F808304A4639463046984705461F
:103DD400D8F80C3013B10121304698470DB9019B36
:103DE4002362284605B0BDE8F0832DE9F047466913
:103DF40003691E44816819B900252846BDE8F08787
:103E0400044631440139FFF7C1FF051EF5DBE068C4
:103E140083681B6998470368A568B5FBF3F203FB45
:103E240012555DB15D1BE06883681B69984727687C
:103E3400A3682A460179F81800F0CAF9A36803EBCD
:103E44000508E768D4F800A0D7F80890D9F80C3032
:103E540023B1002138469847054668B9434652467F
:103E640031463846D9F80450A8470546D9F80C30ED
:103E740013B1012138469847002DBED1E3692BB90F
:103E840018E02068435DDB4343550135A368AB422A
:103E9400F7D8E068226881680D683146A84705466E
:103EA4000028AAD1E3693246A168206898470546EC
:103EB4000028A2D1A2682369134423610023A360CC
:103EC4009BE72DE9F84F00283ED08A4690469B4652
:103ED400044603698268134443448269934236D892
:103EE4004FF000094E463146A8EB06076568A36803
:103EF400ED1AAF420FD320682A460AEB0601184494
:103F040000F037F96368A3602046FFF76EFF81462F
:103F140040B92E44E7E7464507D3BBF1000F01D073
:103F2400A36863B94846BDE8F88F20683A4651440F
:103F3400184400F01EF9A3683B44A360EDE7204653
:103F4400FFF753FF8146EDE76FF00D09EAE76FF0E5
:103F54000B09E7E7F8B529B306460F4600242546C2
:103F64000FE0D3B2102B19D0130B1B01DBB2C2F339
:103F74000320D2B229461843FCF7FEFF034690B94A
:103F84000134BC420CD206EBC40356F8342012F0C0
:103F9400F00FE6D15D6845F02005E5E73025E3E75D
:103FA400002300E000231846F8BD08B501F056FAD6
:103FB40008BD08B501460068FFF7F7FF08BD08B55E
:103FC40000210120FFF7F1FF08BD08B5FDF732F825
:103FD400FDF710F908BD0020704700230B707047EF
:103FE40008B500231370CB1E092B1AD8DFE803F0A1
:103FF40005090D111919191919141146FDF782F93A
:1040040010E00021FDF73AF90CE00021FDF700F97A
:1040140008E0FDF721F905E01146FFF7DEFF002077
:1040240000E0002008BD43685A1E134206D11F2B2E
:1040340006D903681A4205D0002070470020704753
:104044000020704701207047072805D810B50446A2
:10405400FDF758FA204610BD6FF01500704700B503
:1040640085B00B6801934B688A68202B12D9B3F191
:10407400004F11D8013BB3FA83F3C3F11F035B0074
:1040840003F03E031343039301A9FFF7DDFF05B0DB
:104094005DF804FB0823F5E73E23F3E72DE9F84335
:1040A40080460F4699461646002509E02146F0B29F
:1040B400FFF7D5FF064610F1160F14D0013601356F
:1040C400BD4210DA05EB450408EB84046268002A5B
:1040D400F5D0B9F1000FE9D02046FFF7A4FF00287E
:1040E400E4D16FF015063046BDE8F88308B5FDF756
:1040F4001DFA08BD08B5FDF723FA08BD024602E023
:1041040002F8013B01310B78002BF9D11370704791
:104114000346002001E0013301301A78002AFAD165
:1041240070470346002001E0013301301A780AB1D8
:104134008842F9D3704701E00130013103780A78ED
:10414400934201D1002BF7D1981A704702E0013055
:104154000131013A32B1037891F800C0634501D1CD
:10416400002BF4D11AB100780B78C01A70470020E4
:10417400704780EA010313F0030F01D0034623E0E4
:10418400034613F0030F0FD00AB311F801CB03F861
:1041940001CB013AF5E711F801CB03F801CB013A61
:1041A400002AF8D110BC7047032A0DD910B451F875
:1041B400044B43F8044B043A032AF8D8F0E711F807
:1041C40001CB03F801CB013A002AF8D170477047BC
:1041D4005FFA81FC034602E003F801CB013A13F0D5
:1041E400030F02D0002AF7D10FE0C9B241EA01213E
:1041F40041EA0141032A06D943F8041B043AF9E7CA
:1042040003F801CB013A002AFAD170474FF0FF308E
:10421400704708B5024601210020FDF7E9F908BD01
:1042240008B5024602210120FDF7E2F908BD08B5F0
:10423400024603210220FDF7DBF908BD08B502465A
:1042440004210320FDF7D4F908BD08B50246052171
:104254000420FDF7CDF908BD08B502460A21052062
:10426400FDF7C6F908BD08B5024610210A20FDF77E
:10427400BFF908BD08B5002211460620FCF7C4FEAC
:10428400002211460720FCF7BFFE00221146082039
:10429400FCF7BAFE002211460920FCF7B5FE002205
:1042A40011460A20FCF7B0FE002211461720FCF745
:1042B400ABFE002211462820FCF7A6FE08BD08B577
:1042C400FFF7D8FF002008BD00230360436083602C
:1042D4007047B0FBF1F070474FF4802303604FF454
:1042E400800343607047032815D8DFE800F0020517
:1042F4000A0F0020086070474FF480530B600020C1
:1043040070474FF400530B60002070474FF4405344
:104314000B60002070476FF015007047012809D02A
:1043240002280BD010B16FF0150070474FF4804392
:104334000B60704710230B6000207047002008605A
:10434400704701280BD0022806D010B16FF0150079
:10435400704780230B6070470020086070476FF03F
:104364008500704701280BD0022806D010B16FF0E9
:104374001500704740230B607047002008607047A9
:104384006FF08500704708B5002211460B20FCF73A
:104394003BFE0B20FCF72AFE002211460C20FCF702
:1043A40033FE0C20FCF722FE002211460D20FCF700
:1043B4002BFE0D20FCF71AFE002211460E20FCF7FE
:1043C40023FE0E20FCF712FE002211460F20FCF7FC
:1043D4001BFE0F20FCF70AFE002211461020FCF7FA
:1043E40013FE1020FCF702FE002211461120FCF7F8
:1043F4000BFE1120FCF7FAFD08BD08B543681869E7
:1044040000F053F908BD38B50C4643681D692846C9
:10441400FDF7B8FC21462846FDF7ACFC21462846AA
:1044240000F044F938BD2DE9F04106460D464368D5
:104434001F699C6901EB410304EBC30401F101080A
:104444000023A3713846FDF7DFFC70B163793BB1FB
:1044540065690023424621693046A847BDE8F081DA
:1044640029463846FDF786FCF2E729463846FDF72B
:10447400B1FC68B1637933B16569002342462169AF
:104484003046A847EAE729463846FDF77BFCF3E7C0
:104494002946384600F00EF938B165696FF0040317
:1044A400424621693046A847D8E729463046FFF7F7
:1044B400A4FF29463046FFF7A6FF65696FF00403A1
:1044C400424621693046A847C8E708B50021FFF7EE
:1044D400AAFF08BD08B50121FFF7A5FF08BD08B56F
:1044E4000221FFF7A0FF08BD08B50321FFF79BFFDA
:1044F40008BD08B50421FFF796FF08BD08B50521DE
:10450400FFF791FF08BD08B50621FFF78CFF08BD32
:10451400F8B507460E46002431463846FDF79EFCA2
:10452400034660B1651C41F288339C4205DC0A20D5
:104534000021FFF769F92C46EEE76FF00F031846E8
:10454400F8BD38B543681D694C1E5B69A34208D9A0
:104554002146FFF758FF21462846FDF76FFC00204F
:1045640038BD6FF01500FBE70068C0F340007047EA
:104574000068C0F3401070470068C0F340207047E3
:104584000068C0F3403070470068C0F34040704793
:104594000068C0F3405070470068C0F34060704743
:1045A4000068C0F3800070470068C0F38010704753
:1045B4000068C0F3802070470068C0F38030704703
:1045C4000068C0F3804070470068C0F380507047B3
:1045D4000068C0F380607047436843F0020343609F
:1045E4007047436843F0200343607047436843F4D3
:1045F400007343607047436843F40053436070475B
:10460400436843F4003343607047436843F4001342
:1046140043607047436843F00073436070474368E6
:1046240043F0040343607047436843F0400343602E
:104634007047436843F4806343607047436843F4BE
:10464400804343607047436843F48023436070476A
:10465400436843F4800343607047436843F08063D6
:1046640043607047436843F00803436070474368FE
:1046740043F0800343607047436843F4006343603E
:104684007047436843F4004343607047436843F40E
:10469400002343607047436843F40003436070475A
:1046A400436843F0006343607047704708B5FDF703
:1046B40089FB08BD0020704770B54E680125854010
:1046C400896819B10C4649B10C6807E00C4605E04D
:1046D40064B1234604B1236821461C4641B18A686B
:1046E4002A40F5D04B6830469847F1E72346F3E774
:1046F40070BD10F4007F1BD010230B6010F0020F6C
:1047040004D010F0040F2CD050230B6010F01003D1
:1047140005D00B6843F400730B600020704710F061
:10472400200020D00A6842F480620A60184670476C
:1047340010F4807F11D000230B6010F0100304D01C
:104744004FF400730B600020704710F020000AD073
:104754004FF480620A601846704730230B600020D3
:1047640070476FF08500704743685B681B690B6096
:104774000020704743685B68586942400A404240E1
:104784005A610020704743685B6899610020704754
:1047940043685B6899620020704743685A685369AC
:1047A4004B4053610020704710B4046904F1080CB5
:1047B400A368FBB100200DE00B68A360DCF80400E3
:1047C400814212D1CCF804300FE0CCF804000CE0A4
:1047D40018461B6863B19942FAD10028ECD00B68E3
:1047E4000360DCF804309942EFD000230B6001230E
:1047F40003B962B172B1A3680B60A160DCF8043044
:104804000BB1002007E0CCF80410002003E06FF0A7
:10481400150000E0002010BC7047F0B54068446803
:104824000120884002F0300CC2F38016656825EA46
:1048340000058E4035436560C2F3C11EA66890FA38
:10484400A0F5002D4AD0B5FA85F56D00032707FAC7
:1048540005F526EA050690FAA0F5002D40D0B5FA34
:1048640085F56D000EFA05F53543A560C2F34122C6
:10487400E66890FAA0F5ADB3B5FA85F56D004FF092
:10488400030E0EFA05F526EA050E90FAA0F55DB3BF
:10489400B5FA85F56D0002FA05F54EEA0505E56001
:1048A400BCF1200F22D04FEA1C1C226890FAA0F31E
:1048B400002B52D0B3FA83F35B00032101FA03F314
:1048C40022EA030390FAA0F0002848D0B0FA80F05E
:1048D40040000CFA00F018432060F0BD2025B4E736
:1048E4002025BEE72025C9E72025D3E7072919DCC1
:1048F400216A90FAA0F28AB1B2FA82F292000F25EC
:1049040005FA02F221EA020190FAA0F242B1B2FAE7
:1049140082F2920093400B432362C4E72022EDE726
:104924002022F6E7656A020A92FAA2F189B1B1FA85
:1049340081F189000F2606FA01F125EA010192FAB4
:10494400A2F242B1B2FA82F2920093400B43636244
:10495400A9E72021EDE72022F6E72023ACE7202079
:10496400B6E7F0B583B007460D46144601A91046D4
:10497400FFF7BFFE064670B914F4007F05D014F4A7
:10498400006F0BD114F4806F0ED10023019A2946D5
:104994003846FFF742FF304603B0F0BD0121A9407D
:1049A4003846FFF7F0FEF0E70121A9403846FFF74B
:1049B400EFFEEAE708B5026950600121FDF728FB24
:1049C40008BD70B582B00D4616461C4682680023A9
:1049D4002360A36053696A4601A9984714E02368D9
:1049E400EB1AB3FBF1F01368834228BF0346226835
:1049F40003FB01222260A2681A44A260019A116892
:104A0400994211D808320192009B5A1E00923BB180
:104A1400019A51686160002DE1D1A368F01AE2E7C0
:104A24006FF0150002B070BD0020FBE708B5134617
:104A34000022FFF7C6FF08BD03691B689B6913F4D6
:104A4400407F01D1002070476FF00400704770B5BB
:104A54000E4615461C460023224600F0ECF850B1E1
:104A64000CB9002070BD224606F100612846FFF70C
:104A740080FB0020F6E76FF01500F3E70020704795
:104A840070B5064600F0AFFF0A220023FBF748FB8F
:104A940010F1080441F100053046FFF7CDFF00286E
:104AA40014DB33691B689B6913F0010F0CD000F011
:104AB4009AFF0A220023FBF733FB844275EB0103C0
:104AC400EFDA6FF0040000E0002070BD6FF0040026
:104AD400FBE7F8B504460E461546012300F0ABF893
:104AE40020B315B900252846F8BD20690C304FF0D5
:104AF400FF324FF0FF33FEF7B3F900212046FDF7F4
:104B0400ADFA074658B101212046FDF7A7FA05463C
:104B140007B13D4620690C30FEF780F9E3E72A46E9
:104B24003146204600F0B1F80746ECE76FF0150572
:104B3400D9E72DE9F04105460F4616461C460123E8
:104B4400224600F078F840B31CB900242046BDE8A2
:104B5400F08128690C304FF0FF324FF0FF33FEF73D
:104B64007FF900212846FDF779FA804668B10121D2
:104B74002846FDF773FA0446B8F1000F00D0444606
:104B840028690C30FEF74AF9E0E7234632463946F5
:104B9400284600F0ABF88046E9E76FF01504D5E746
:104BA400000A70474068C0F340007047436823F030
:104BB40008034360704701F500210902436843F488
:104BC40000734360436843F008034360BFF34F8FAF
:104BD40000230B607047436823F008034360436875
:104BE40023F40073436070472DE9F04105461746EE
:104BF40001F100660369D3F800804046FFF7D2FF55
:104C040098B92846FFF73CFF041E0BDB33687BB9D9
:104C1400BFF34F8F37602846FFF732FF0446404604
:104C2400FFF7C4FF2046BDE8F0816FF00404F9E704
:104C34006FF00404F6E7F0B585B006460C46154659
:104C44002BB111F0010F19D112F0010F19D101AAE2
:104C540021463046FFF7EAFE074628B1002717F041
:104C6400010F10D001200AE06119013901AA304670
:104C7400FFF7DCFE0028F2D10127F0E7002005B0A1
:104C8400F0BD0020FBE70020F9E72DE9F8430746D3
:104C94008846914603691E683046FFF783FF00BBD0
:104CA4003846FFF7EDFE041E1DDB4046FFF778FF94
:104CB400054608EB09000138FFF772FFA84212D33A
:104CC40029463046FFF777FFBFF34F8F3846FFF78B
:104CD400D7FE04463046FFF77EFF002C03DB013588
:104CE400E7E76FF004042046BDE8F8832DE9F043BC
:104CF40083B08146884617461E460020044600E0DD
:104D04000134B4EB960F0FD2A500042207EB840103
:104D14000DEB0200FFF72DFA019A05EB0801484656
:104D2400FFF762FF0028EBDA03B0BDE8F083036904
:104D34001B680B6043681B68DB6803F4C063B3F54E
:104D4400806F2AD0B3F5C06F29D101230B7143685A
:104D54001B681B6903F44053B3F5805F23D0B3F59C
:104D6400405F22D0EBB103234B7143681B68DA68C0
:104D7400DB6803F4C06312F4805F18D1E3B9032342
:104D84008B7143681B685B6903F44073B3F5407F20
:104D940014D00023CB71002070470223D6E70023F0
:104DA400D4E70123E0E70023DEE70223DCE70BB9C5
:104DB4000423E5E70323E3E70223E1E70123E9E72B
:104DC40043681B681A6812F0080F12D082B01A6880
:104DD4000192019A5A680192019A1A6812F0200FFE
:104DE40004D05B680B70002002B070474FF0FF30B6
:104DF400FAE71A6812F0200F03D05B680B700020EA
:104E040070474FF0FF30704743681A68136813F017
:104E1400800FFBD05160704784B043681B681868EA
:104E240010F0080000D001201A6812F0010F01D020
:104E340040F002001A6812F0020F01D040F00400A2
:104E440010F0010F05D01A680092009A5A68009277
:104E5400009A10F0020F05D01A680192019A5A685C
:104E64000192019A10F0040F05D01A680292029A76
:104E74005A680292029A1A680392039A5B6803932F
:104E8400039B04B070470369D9601A61002070471E
:104E94000369C3F84811C3F84C210020704730B5AA
:104EA40083B00C694FF01003EFF3118583F312887C
:104EB400BFF36F8F4B681A68536923F08003536103
:104EC40004F5887000F0E7FBD4F8B000D4F8B4100F
:104ED40083681B6943B16A46984728B9D4F80031FE
:104EE400019A9B1AC4F808310023C4F8003185F3F1
:104EF4001188BFF36F8F03B030BD08B5002211468F
:104F04002620FCF781F82620FCF770F808BD08B5C8
:104F1400002211462720FCF777F82720FCF766F8D3
:104F240008BD70B50546046940680068D4F8B060EF
:104F3400002E49D0D4F80061002E48D1C4F8FC10EA
:104F4400C4F80021C4F80C316FF040030360C36857
:104F540043F04003C360D4F8FC30C4F8DC30D4F828
:104F64000031C4F8F030D4F8B00083681B6804F151
:104F7400B802D4F8B410984760BBD4F8B000D4F8A1
:104F8400B41083689B689847064630BB04F5887064
:104F9400D4F80C114B1C012B07D86B681A685369A1
:104FA40043F080035361304670BD21EAE171CB17B1
:104FB4009C0044EA91748A00521843EB040392184B
:104FC4005B41FEF7EFF8E8E76FF01206EBE76FF0EE
:104FD4000F06E8E76FF01506E5E76FF00D06E2E768
:104FE40030B589B00469D4F80051002D34D004F5EB
:104FF400887000F050FBD4F8B000D4F8B410836883
:105004001B6933B106AA984718B9079BED1AC4F86F
:105014000851D4F8B000D4F8B4108368DB6898471A
:1050240000230193029303930493059301228DF8C3
:105034000420D4F8FC200292D4F808210392C4F886
:105044000031C4F80831E3681BB1226901A9A068E2
:105054009847002009B030BD6FF00D00FAE708B59D
:10506400A0F588708068FFF7BBFF08BDF0B589B074
:10507400054604690022E2662267D4F84831636673
:10508400D4F84C61A666A665A364C4F84821C4F8A4
:105094004C21A069E169626C87687F680FB1009652
:1050A400B847A069E16983689B6898476B681B6887
:1050B4001A680292029A5B680293029B002303938C
:1050C400049305930693079303238DF80C30E36848
:1050D4001BB1226903A9A068984709B0F0BDF0B5D7
:1050E40087B00646046940680568A06900284AD06C
:1050F40094F8A800002849D1E0666166A26620679A
:105104006367EB6823F02003EB60A265636EA3641E
:10511400A06983681B6804F12002E1699847074687
:10512400002836D1A069E16983689B689847002804
:1051340032D173681A683169536943F0400353618B
:10514400012381F8A8302B680093009B6B680093BF
:10515400009BEB6843F01003EB606B6943F00103C1
:105164006B61002301930293039304930593032338
:105174008DF80430E3681BB1226901A9A06898473F
:10518400384607B0F0BD6FF01207F9E76FF00F076C
:10519400F6E76FF01507F3E76FF00D07F0E770B56A
:1051A40086B00C69002B35D10D4604F178063046E3
:1051B40000F071FAA36E2367002301930293039313
:1051C4000493059302238DF80430636E0293E26E18
:1051D4000392236F9B1A0493226FE266002B2DD156
:1051E400D4F84831002B31D0002301930293039368
:1051F4000493059304238DF80430636E0293E368EB
:105204001BB1226901A9A06898472846FFF72EFF21
:1052140006B070BD1A4606238DF804308DF80820B8
:10522400636E039300230493236F0593E368002BB9
:10523400EED0226901A9A0689847E9E7E368002B4A
:10524400CED0226901A9A0689847C9E701220023AA
:105254003046FDF7A7FFDBE710B588B00469A06905
:10526400E16983681B6943B106AA984728B9A36E0C
:10527400079A9B1AE26E9A4201D308B010BD2367C5
:1052840000230193029303930493059302238DF85F
:105294000430636E02930392236F9B1A0493226F6C
:1052A400E266002BE9D0E368002BE6D0226901A96D
:1052B400A0689847E1E730B58BB0046943681A6881
:1052C40000230593069307930893099305238DF808
:1052D400143094F8A830002B31D00546D36823F05D
:1052E4001003D360FFF7B8FF0023009301930293E8
:1052F4000393049304238DF80030636E0193E368F1
:105304001BB122696946A06898472B69002583F878
:10531400A85004F1780000F0BEF9A069E16983683F
:10532400DB689847C4F84851C4F84C51E3681BB192
:10533400226905A9A068984700200BB030BDE36836
:105344001BB1226905A9A06898476FF00D00F4E726
:1053540008B5034650F8700C53F8082C53F8103C69
:105364009A4202D0FFF778FF08BDFFF7A4FFFBE7DE
:1053740030B587B00446056943681B68DA6812F0E3
:10538400100F03D01A6812F0100F0CD1DA6812F063
:10539400400F03D01A6812F0400F27D12046FFF7C0
:1053A4003BFD07B030BD1A680192019A5B68019316
:1053B400019B05F178006A6F531C012B06D86B6FB3
:1053C400002BEBD12046FFF747FFE7E722EAE27321
:1053D400D9174FEA810C4CEA937C9A00D21841EB1E
:1053E4000C0392185B41FDF7DDFEE8E7DA6822F072
:1053F4004002DA606FF040021A60002301930293C6
:10540400039304930593D5F8FC200292D5F8082160
:105414000392C5F80031C5F80831EB68002BBDD004
:105424002A6901A9A8689847B8E748B1C3681888E9
:10543400C0F30800B0F5807F14BF0020012070473E
:10544400002070474FF01002EFF3118382F31288AB
:10545400BFF36F8FFEE708B5FFF7F4FFF8B5054615
:105464000E464FF01003EFF3118783F31288BFF356
:105474006F8FFEF7E1F9044631462846FFF7EBFF4C
:1054840087F31188BFF36F8F2046FCF705F8F8BD4A
:1054940010B4073222F0070202F1200301F12004C4
:1054A400446682660022C266C81810BC7047EFF3D7
:1054B4000580003818BF012070476FF0570070470F
:1054C40008B5FEF701F808BD10B400248460037326
:1054D40042738173C4738461C46110BC7047F0B5B6
:1054E40087B00446129E139D00270597109F0497CA
:1054F4000F9F03970E9F02970D9F01970C9F009794
:10550400FDF71AFCB5F1FF3F08BFB6F1FF3F02D12A
:10551400204607B0F0BD32462B462046FDF7FEFB81
:10552400F6E708B54FF01002EFF3118382F3128807
:10553400BFF36F8FFBF74CFDF4E73AB18A4208D30F
:105544008160C26000604060002070476FF0150009
:1055540070476FF0150070470346C26812F0020FDF
:1055640009D0DA6812F00F0004D042F00202DA60C7
:1055740002F00F007047806822F00401D96012F035
:10558400040FEED000F1800CD0F880200021002A16
:10559400E7D0934202D011461268F8E741B11A6885
:1055A4000A60DCF8042093420CD000221A60D8E789
:1055B4001A68C0F88020DCF804108B42F5D1CCF8CE
:1055C4000420F2E7CCF80410EFE710B582B00346EC
:1055D4004FF01002EFF3118482F31288BFF36F8F40
:1055E4000022019250F8042C22F0080140F8041C17
:1055F40012F0080F05D184F31188BFF36F8F02B046
:1056040010BD10389B69019301A9FDF751FCF2E725
:1056140010B50446C36823F00802C26013F0080FF3
:1056240003D12046FFF798FF10BD103000F08EF92B
:10563400F7E738B504460D4630220021FEF7C8FDD1
:1056440065604FF48073E36038BDF0B583B00190BA
:105654000C4616461D464FF01003EFF3118783F3F3
:105664001288BFF36F8FCB6823F00802CA6013F06F
:10567400080F0BD132462B46214601A8FDF784FCC6
:1056840087F31188BFF36F8F03B0F0BD01F11000F1
:1056940000F05CF9EEE710B54FF01003EFF311845E
:1056A40083F31288BFF36F8FFFF7B2FF84F311887F
:1056B400BFF36F8F10BD002070478068704790F96A
:1056C4000E3091F90E00834201D0C01A70470020B9
:1056D400704708B5034620B9EFF3058242B90122A9
:1056E40000E0002232B983F31188BFF36F8F08BD45
:1056F4000022F7E71846FBF7B9FCF8E74A680B689D
:1057040013605A6000230B604B60704703460068C7
:10571400834200D070470020FCE738B504460023DC
:105724004FF01002EFF3118582F31288BFF36F8FED
:1057340004E085F31188BFF36F8F012343B920463A
:10574400FFF7B9FF0028F4D12046FDF77DFEF0E70E
:1057540038BD70B50446A0F1180500234FF01002BF
:10576400EFF3118682F31288BFF36F8F11E014F800
:105774000B3C03F0FB0304F80B3C23F0100304F888
:105784000B3C2846FDF760FE86F31188BFF36F8F4C
:105794000123ABB914F80B3C13F0280FF4D154F8DF
:1057A400103C002BE3D02846FFF787FF2946FFF77C
:1057B400A5FF6B7B23F002036B730023AB60D6E77A
:1057C40070BD70B505460E46FDF79CFE6B7B43F03D
:1057D40002036B73B6B1AE603468A64219D064B1EB
:1057E40021462846FFF76BFF00280CDC2CB17368B8
:1057F4009C4202D02468002CF1D173682E606B6047
:105804001D60756070BD63686B602C601D606560B1
:10581400F8E70024E3E72DE9F84305460E469146F0
:10582400984600244FF01003EFF3118783F3128896
:10583400BFF36F8F08E031462846FFF7C2FF87F3B6
:105844001188BFF36F8F0124002CF4D04A464346DD
:105854002846FDF7AFFCBDE8F88370B50546002384
:105864004FF01002EFF3118682F31288BFF36F8FAB
:105874001C4604E086F31188BFF36F8F0123ABB994
:105884002846FFF743FF04460028F3D0FFF715FF2F
:105894002146FFF733FF637B23F002036373002386
:1058A400A36004F1180000F051F8E3E7204670BD4E
:1058B4002DE9F84305468846174600234FF01002A9
:1058C400EFF3118682F31288BFF36F8F994604E0D9
:1058D40086F31188BFF36F8F0123EBB92846FFF7D6
:1058E40015FF04460028F3D0C0F878804761FFF71D
:1058F400E4FE2146FFF702FF637B23F00203637398
:105904000023A36004F1180000F020F82046FDF7FE
:105914009BFD4FF00109DBE74846BDE8F88310B56D
:105924000446FDF7EFFF48B1024620696169136937
:105934001B18506941EB00011361516162682368CF
:1059440013605A6000232360636010BD70B5044681
:1059540000234FF01002EFF3118682F31288BFF395
:105964006F8F6FF0150004E086F31188BFF36F8F1B
:1059740001231D463BB92368002BF5D02046FFF7D1
:10598400CEFF2846F0E770BDF8B505460F46002364
:105994004FF01002EFF3118682F31288BFF36F8F7A
:1059A4000AE0012404F00104012800DD7CB986F337
:1059B4001188BFF36F8F01231C467BB9FDF7BAFF33
:1059C400B0F1FF3FEDD0A842ECDB0124EAE7394611
:1059D400A842A8BF2846FCF79FFEE8E7F8BD08B533
:0E59E400FEF7BEF808BD08B5FEF7BAF808BD1C
:0259F200FFFFB5
:0859F40064A7FF7F0100000021
:1059FC00E90E000800000000593D000800000000FE
:105A0C0041180008845A00080D1D00089C5A000813
:105A1C00B9490008B45A0008B9490008CC5A000822
:105A2C00B9490008E45A0008B9490008FC5A0008B2
:105A3C00B9490008145B0008B94900082C5B000840
:105A4C00C3420008445B0008192500085C5B000891
:105A5C0019250008745B0008ED1800080000000010
:105A6C00E92600088C5B0008C13B00080000000020
:085A7C00DD200008A45B000816
:105A84007C5F000800000000A8020020E80200205B
:105A940000000000F85D00088C5F0008B45F000897
:105AA4009C5F0008EC020020080A0020EE5D00085C
:105AB400986000082C61000840610008F002002092
:105AC4000C0B0020E65D0008A060000818610008C7
